:020000040800F2
:1000000078080020C51C0008891800088B18000813
:100010008D1800088F1800089118000800000000D3
:10002000000000000000000000000000931800081D
:10003000951800080000000097180008991800089B
:10004000DD1C0008E11C0008E51C0008E91C000894
:10005000ED1C0008F11C0008AB180008C1180008CE
:10006000F51C0008F91C0008FD1C0008011D000813
:10007000051D0008091D00080D1D0008111D0008C0
:10008000D7180008D9180008151D0008191D000808
:100090001D1D0008211D0008251D0008DB18000893
:1000A000291D0008F51800082D1D0008311D000845
:1000B000F7180008351D0008391D00083D1D00080F
:1000C000411D0008451D0008491D00084D1D000880
:1000D000511D0008551D0008F9180008591D000899
:1000E000851900085D1D0008611D0008DFF87C1BF4
:1000F0000A6860F30A2240F2FA5060F31F420A6075
:100100007047DFF8680B0068C0F3022070470100F9
:1001100008D4012200F01F018A40DFF8001D4009C9
:1001200041F82020704701000CD4012200F01F018B
:100130008A40DFF8EC1C400941F82020BFF34F8FC4
:10014000BFF36F8F7047010008D4012200F01F0138
:100150008A40DFF8D01C400941F82020704709018F
:10016000020003D4DFF8080B81547047DFF8B80CA5
:1001700002F00F02104400F8041C704710B400F0A5
:100180000700C0F10703052B00D30423041D072C2F
:1001900001D2002000E0C01E012404FA03F35B1E1C
:1001A0001940814004FA00F0401E1040084310BC82
:1001B0007047BFF34F8FDFF8B41A0A6802F4E062A9
:1001C000DFF8680C02430A60BFF34F8F00BFFDE702
:1001D00038B50446641EB4F1807F0BD2DFF8505C62
:1001E0006C600F214FF0FF30FFF7B9FF0020A860CF
:1001F00007202860B4F1807F8041C043C00F32BD2A
:1002000041A2114411F8011C0818016841F00101D4
:10021000016070473CA2114411F8011C08180168E4
:10022000490849000160704737A3194411F8011CBF
:1002300008180368DFF8FC1B0B401A430260704784
:1002400031A3194411F8011C0818016821F020019C
:100250000A430260704700002BA3194411F8011CE7
:100260000818016821F040010A430260704700004D
:1002700025A3194411F8011C0818016821F0800118
:100280000A430260704700001FA3194411F8011CC3
:100290000818016821F440710A43026070470000A9
:1002A00019A3194411F8011C0818016821F44061D0
:1002B0000A4302607047000013A3194411F8011C9F
:1002C0000818016821F440510A4302607047000099
:1002D0000DA3194411F8011C08184168090C52EAD1
:1002E000014242607047000007A3194411F8011C45
:1002F0000818C2607047000003A3194411F8011CDC
:100300000818826070470000081C3044586C800058
:10031000DFF8240B016841F4803101607047DFF899
:10032000180B0068400C00F001007047DFF80C1B50
:100330000A68920850EA820008607047DFF8FC0AF9
:10034000006800F00C007047DFF8F01A0A6822F02D
:10035000F002104308607047DFF8E01A0A6822F4E0
:10036000E062104308607047DFF8D01A0A6822F490
:100370006052104308607047DFF8BC0A016841F022
:10038000807101607047DFF8B00A0068400E00F02D
:1003900001007047DFF8A42A136823F47C1300F4EB
:1003A0004030184308431060704781B0DFF8901A5E
:1003B0000A6802430A60096808400090009801B08A
:1003C0007047DFF87C1A0A6822EA0000086070476C
:1003D00081B0DFF83C1D0A6802430A6009680840E2
:1003E0000090009801B07047DFF8281D0A6810439C
:1003F00008607047DFF81C1D0A6822EA00000860E8
:10040000704781B0DFF8101D0A6802430A6009686E
:1004100008400090009801B07047DFF8001D0A689E
:10042000D20850EAC20008607047DFF8F00C00689C
:1004300000F007007047016821F0800101607047FB
:100440008368DFF8DC2C13401943816070474268F1
:1004500022F07002114341607047816821F08001F1
:1004600081607047C16841F40051C1607047C16844
:1004700021F40051C1607047016921F4904101618C
:10048000416921F02A01416170470068800900F04C
:10049000010070470068C00900F00100704781B09A
:1004A00001680091009940680090009801B0704781
:1004B00081B001680091009940680090009801B0F7
:1004C000704781B0016800910099406800900098E1
:1004D00001B0704781B001680091009940680090B8
:1004E000009801B070476FF040010160704700F163
:1004F0000C0300F10C0151E8002F42F0100243E818
:1005000000210029F5D1704700F1140300F1140116
:1005100051E8002F42F0400243E800210029F5D1C4
:1005200070474160704710B400EB116091FAA1F17F
:10053000B1FA81F1890003680F248C40A3438A40FB
:100540001A43026010BC7047C1F30F21016170476C
:10055000C1F30F2141617047DFF8C80B0221026827
:1005600061F31A620260704710B401F0FF02DFF815
:10057000B83B53F82240090C8C4391FAA1F1B1FA2F
:1005800081F18840204343F8220010BC704770B5C9
:1005900072B6DFF8984B206880F30888DFF8900B7C
:1005A000FFF765FF4FF40030FFF71EFF4FF40030F8
:1005B000FFF720FFDFF87C5B06212846FFF72AFEC5
:1005C0000120FFF7FEFE0120FFF7EFFE4FF0FF36A0
:1005D0006E602620FFF7A7FD2620FFF7B4FDDFF8A9
:1005E00040080660DFF83C0806606068DFF84018E5
:1005F00000220A604A608A608047FEE70146000ADE
:1006000040EA012080B270470021DFF82C3B04E073
:1006100030F8112023F81120491CB1F5007FF7D3E1
:100620000020704710B5044600F068F8DFF80C0BA6
:1006300034210160416841F00201416084604168F9
:1006400041F0400141600168C907FCD4416821F0D4
:1006500002014160016811F0140F04D000F05AF853
:100660004FF0FF3010BD2021016000F053F8002052
:1006700010BD38B5044600F041F8002500E06D1CBF
:10068000B5F5007F13D2DFF8B00A30F81510084630
:100690004FF6FF729042F2D004EB450000F041F8B3
:1006A0000028ECD000F036F84FF0FF3032BD00F0FB
:1006B00031F8002032BD70B504460D46A60AB602D8
:1006C00072B63046FFF7A0FFDFF86C0AA41B64087F
:1006D00020F814503046FFF7A5FF002803D062B67B
:1006E0006FF0020070BD3046FFF7C3FF002862B60E
:1006F00002D06FF0030070BD002070BDDFF8400A2B
:10070000C168090605D5DFF83C1A0160DFF8381A20
:1007100001607047DFF8340A016841F08001016030
:10072000704738B504460D46FFF7E8FFDFF80C0ABE
:10073000416841F00101416025800168C907FCD48E
:100740004168490849004160016811F0140F01D166
:100750003422026001F01401481E8041C043C00FE2
:1007600032BDF8B504460D460026DFF8C4790BE02B
:100770003846FFF78FFE0028FAD0304680B2215C61
:100780003846FFF7CEFE761C3046294680B28842B6
:10079000EED33846FFF779FE0028FAD03846FFF747
:1007A000A2FE0621DFF88C09FFF72AFDBDE8F14023
:1007B0001FE1E0B5DFF8981909788DF800102A21BB
:1007C0008DF801100146090A8DF802108DF803001A
:1007D0000421684600F0F0FC014609128DF804106F
:1007E0008DF8050006216846FFF7BBFF07BD4DF6F3
:1007F000FE31DFF8380900F0DFBC2DE9FC41DFF8FD
:100800005449A278E17841EA0221ADF8001021793B
:10081000657945EA0125A0F10807BFB2DFF8306924
:100820007088BDF8001088424CD10120B0804FF094
:1008300000080FE004EB08008179C07941EA00214B
:10084000F068FFF76EFFF068801CF06008F10208A6
:100850001FFA88F808F10100B842EBDBB84507DA67
:1008600004EB0800817941F47F41F068FFF759FFFC
:100870007088401C7080BDF80000FFF79AFFBDF83B
:100880000000A8422CD1FFF7B2FFDFF8CC180F8888
:10089000DFF8C8484FF6FF75FFF7B0FEB84204D145
:1008A00029462046FFF73DFF07E02846FFF781FF76
:1008B00041F211112046FFF734FFFFF72BFF002014
:1008C000B0800DE04FF6FF70FFF773FF41F211119A
:1008D000DFF88808FFF725FFFFF71CFF0020B08036
:1008E000BDE8F3811CB5DFF8681809788DF80010B1
:1008F0006C46DFF86018497841F0800161708DF82E
:1009000002000321684600F057FC01460912E1701D
:100910008DF8040005216846FFF723FF13BD70B56D
:1009200004002AD0DFF828580020A860DFF82468E7
:10093000032C03DBA11E304600F03EFC032C0ADB37
:100940003119891E0A780346B2EB132F12D1497868
:10095000C0B281420ED13078297888420AD17078AD
:100960002A2803D12046BDE8704046E70120BDE8B3
:100970007040B7E7BDE870403BE070BD4FF6FF71D7
:10098000DFF8D807FFF797FEFFF7B8FEDFF8AC07F0
:1009900034210160DFF89447214603E02022026001
:1009A00001F58061DFF8B827914217D2DFF8B4274C
:1009B0009142F5D0426842F0020242608160426892
:1009C00042F0400242600268D207FCD4426822F042
:1009D00002024260026812F0140FDFD0FFF79AFEA5
:1009E000DFF86C07C4600121418072B6FFF7E1FBBC
:1009F00000BF10B500200246DFF8583701E05A5416
:100A0000401C014689B26429F9DBDFF824472046FF
:100A1000FFF760FD2046FFF742FD2046FFF748FD47
:100A20002046FFF74EFDDFF80C4706212046FFF772
:100A3000F1FB642206212046FFF74AFC06212046EE
:100A4000BDE81040FFF7DCBB3EB50120FFF7D9FC45
:100A50004FF08050FFF7BCFC0320FFF747FBFFF788
:100A600050FB00220F21FFF789FB01464FF0FF30BA
:100A7000FFF775FBFFF770FD00F08AF800F002FA4F
:100A800000F0E0F900F030F900F0F4F800F0B5F80B
:100A9000DFF89C462046FFF72AFDDFF89856DFF87E
:100AA000C82606212846FFF727FCDFF8A8260621DE
:100AB0002846FFF719FC2046FFF726FD00F09AFBB9
:100AC000DFF8A80600684FF47A71B0FBF1F0FFF789
:100AD0007FFBFFF78EFF4FF6FF7514E0A0881E28FE
:100AE00006DBDFF84806E060012060800020A0807F
:100AF000A068B0F57A7F06D3A068A0F57A70A060F0
:100B0000A088401CA080DFF85046E088ADF80600C1
:100B1000DFF85C060088ADF802000020ADF80000A8
:100B2000BDF80200A84209D0FFF761FEADF8000051
:100B3000BDF80000FFF762FDADF800002088ADF8B9
:100B40000400DFF80C46BDF8060041F2111188429E
:100B500002D1FFF713FFCBE7BDF80000BDF804108A
:100B6000884206D1BDF80200A84202D0FFF70FFD6F
:100B7000BEE7A0880028B1D0BDF80200A842ADD0E1
:100B8000A0881E28B4DBFFF7F9FE0020A080AFE7A5
:100B900010B50220FFF741FCFFF747FC0228FBD10C
:100BA000FFF7B6FBFFF7BBFB0128FBD14FF4801129
:100BB0004FF48030FFF7EEFBFFF7DEFBFFF7E3FBC0
:100BC0000128FBD10020FFF7BFFB4FF48060FFF747
:100BD000C3FB0020FFF7C8FB0220FFF7A7FBFFF7CE
:100BE000ADFB0828FBD1DFF88C45204600F052FB16
:100BF0002046BDE8104000F050BB18B585B0142168
:100C00000022684600F050FB4FF40060FFF7F9FB4C
:100C1000FFF777FA00221146FFF7B0FA01461920D4
:100C2000FFF79DFA1920FFF772FA4720ADF8000090
:100C30000020019040F2E7300290002003900490E1
:100C4000DFF834456946204600F081FB2046FFF777
:100C5000F2FB00212046FFF7F3FB00212046FFF7BF
:100C6000F6FB2046FFF7F9FB06B010BD0CED00E0E7
:100C700000E400E000B585B014210022684600F0D1
:100C800013FB0120FFF7A4FBFFF73BFA00221146FC
:100C9000FFF774FA01461C20FFF761FA1C20FFF7EA
:100CA00036FA41F61F40ADF80000002001901320F5
:100CB00002900020039069464FF0804000F047FB0F
:100CC0004FF08040FFF7B7FB00214FF08040FFF767
:100CD000B7FB00214FF08040FFF7B9FB4FF0804099
:100CE000FFF7BBFB05B000BD10B58CB01C21002286
:100CF00005A800F0D9FA14210022684600F0D4FAC1
:100D00004FF40030FFF764FB0420FFF77AFB40F25A
:100D100004400090092001900320029000200390DD
:100D2000DFF858446946204600F092FB40F6080080
:100D30000090042001906946204600F089FBDFF80E
:100D4000F443002206212046FFF76EFA0022062116
:100D50002046FFF7B1FA002206212046FFF770FA7D
:100D6000002206212046FFF777FA8022062120463E
:100D7000FFF77EFA002206212046FFF785FA0022BF
:100D800006212046FFF78CFA102207212046FFF7A4
:100D90004BFA002207212046FFF78EFA0022072196
:100DA0002046FFF74DFA002207212046FFF754FAAC
:100DB000802207212046FFF75BFA00220721204608
:100DC000FFF762FA002207212046FFF769FAFFF7D2
:100DD00098F900221146FFF7D1F901462620FFF7C6
:100DE000BEF92620FFF793F94FF4E130059000207B
:100DF0000690079008900C20099000200A900B9014
:100E0000CB4C05A9204600F08FFB2046FFF734FBB2
:100E10002046FFF727FB0CB010BD000000E100E00A
:100E200080E100E080E200E018ED00E00400FA0557
:100E300010E000E0EFBFFFFF00100240041002408E
:100E40001410024080B50120FFF7AFFAFFF759F9FF
:100E500000221146FFF792F901461020FFF77FF9B3
:100E60001020FFF754F9FFF74CF900221146FFF765
:100E700085F901461120FFF772F91120BDE8024003
:100E8000FFF745B92DE9F84787B0002069460860AB
:100E900048601421024602A800F006FA1020FFF76D
:100EA000B0FA2020FFF7ADFA0420FFF7AAFA0820D5
:100EB000FFF7A7FAB24CDFF8CCA251462046FFF765
:100EC00047FBAE4DB04E31462846FFF741FBAF4FD2
:100ED00042F224413846FFF73BFBDFF8B48241463B
:100EE0003846FFF731FBDFF8AC9249462846FFF75A
:100EF0002BFBCDF808A001200390022004900020D5
:100F0000059002A9204600F0A3FAA348029004200D
:100F1000039002A9284600F09BFA02960120039054
:100F200002200490002005900120069002A9284686
:100F300000F08EFA40F2044002900120039002205B
:100F40000490002005900120069002A9384600F088
:100F50007FFA924802900420039002A9384600F0DC
:100F600077FACDF808800120039002200490002039
:100F70000590069002A9384600F06AFACDF808906C
:100F8000012003900220049000200590069002A901
:100F9000284600F05DFA42F2200002900120039002
:100FA000022004900020059002A9384600F050FA73
:100FB0007B490220FFF7D8FA4FF470210120FFF798
:100FC000D3FA4FF470010120FFF7CEFA75490120E2
:100FD000FFF7CAFA74490120FFF7C6FA4FF4004040
:100FE000009001208DF8040000208DF805000320FA
:100FF0008DF80600684600F00DFB012000908DF88A
:10100000040000208DF8050003208DF806006846D6
:1010100000F000FB0220009001208DF80400002069
:101020008DF8050003208DF80600684600F0F2FAFE
:101030004FF40060009001208DF8040000208DF82E
:10104000050003208DF80600684600F0E3FA4FF42F
:101050008070009001208DF8040000208DF80500BC
:1010600003208DF80600684600F0D4FA04224F49A8
:101070002046FFF758FA042240F201113846FFF7E4
:1010800052FA042240F202213846FFF74CFA0422B9
:1010900047493846FFF747FA042246493846FFF7E2
:1010A00042FAFFF72EF800221146FFF767F80146D3
:1010B0000620FFF754F80620FFF729F8FFF721F87C
:1010C00000221146FFF75AF801460720FFF747F8BC
:1010D0000720FFF71CF8FFF714F800221146FFF76E
:1010E0004DF801461720FFF73AF81720FFF70FF8E1
:1010F000FFF707F800221146FFF740F801462820C5
:10110000FFF72DF82820FFF702F808B0BDE8F087B8
:101110001C10024010100240181002400020024033
:10112000F8BFFFFF04000140080001400020000854
:101130000044004000000240140000200C20024047
:101140000420024023016745AB89EFCD1020024007
:101150000000002014040020FEFB000804FC00082E
:10116000FFFB000800FC00080444004010000020C1
:101170000220000800A24A04002C0140000801409F
:10118000001001402000200488800804000C014069
:10119000DA18C20407000704830380043000300417
:1011A000030000F0020000F002000F008000800445
:1011B000080008040100010470B44FF6FF72002318
:1011C0000A4D08E002F0FF06045D664035F816405F
:1011D00084EA22225B1C1C46A4B28C42F2DB10463D
:1011E000000A40EA022080B270BC7047BC190008B7
:1011F000704700001849086800F00C00174A0428DE
:1012000002D0082803D01BE0154810601AE00B68D4
:1012100003F47013086800F480309B0C9B1C0028BA
:1012200003D11048434313600CE00868800303D5E2
:101230000D484343136005E009484343136001E050
:101240000A4810600AA00968C1F30311405C1168E4
:10125000C1401160704700000410024010000020DF
:10126000001BB70000093D00808D5B0000127A0072
:101270000000000000000000010203040607080946
:10128000074AB0FBF1F0401E50600020906005203E
:10129000106070474FF47A71F2E7024908607047B6
:1012A00010E000E01000002062F30F2262F31F4202
:1012B000401810F0030308D0C91A1FD3DB0748BF3A
:1012C00000F8012D28BF20F8022D130030B4144679
:1012D0001546103928BF20E93C00FAD8490728BF35
:1012E00020E90C0048BF40F8042D890028BF20F8F1
:1012F000022D48BF00F8012D30BC7047C91818BF37
:1013000000F8012DCB0728BF00F8012D70470EE033
:1013100002684368024408305FEAC37C44BF4B4420
:101320005B1E52F804CB43F804CB091FF9D150F8E7
:10133000041B0029ECD1704781627047C16270477D
:1013400001637047416941F001014161704770B527
:1013500004460D462068DFF87060B4420AD0B4F14C
:10136000804F07D0DFF864108C4203D0DFF86010A4
:101370008C4204D120F07000014668680843B442F2
:1013800008D0B4F1804F05D010498C4202D01049EA
:101390008C4204D120F440700146E8680843206084
:1013A000A9682046FFF7CAFF29882046FFF7C4FF37
:1013B000B44203D129693046FFF7C2FF2046FFF748
:1013C000C1FF002070BD0000002C0140000400405F
:1013D0000008004010B400EB116091FAA1F1B1FADD
:1013E00081F1890003680F248C40A3438A401A438B
:1013F000026010BC704710B400EB116091FAA1F1CB
:10140000B1FA81F18900036803248C40A3438A4028
:101410001A43026010BC704710B400EB116091FADF
:10142000A1F1B1FA81F18900036804248C40A3433F
:101430008A401A43026010BC7047C368090A8B4394
:1014400091FAA1F1B1FA81F18A401A43C260704762
:101450002DE9F04104460D462E683602360C96FA08
:10146000A6F0B0FA80F72DE04FF0011807F1F80070
:1014700008FA00F848F0806807E0C00721D5082F77
:10148000F2D240F2011808FA07F86868082804D177
:101490002A6941462046FFF7D0FF6A684146204648
:1014A000FFF798FF6868012801D0092809D1AA68C8
:1014B00041462046FFF79FFFEA6841462046FFF776
:1014C000ABFF7F1C3046F840D7D10020BDE8F0814B
:1014D000C068400B00F001007047026922F44052DE
:1014E000114301617047426922F440721143416126
:1014F0007047192359439200B1FBF2F26421B2FB09
:10150000F1F36FF0630101FB032212013232642117
:10151000B2FBF1F101F0F00202EB031201F00F0156
:10152000891889B281607047F8B584B005460E46C7
:1015300001270024FFF7CCFF00282CD1E9681A48C6
:10154000014070680143F068014330690143E9607C
:10155000B1682846FFF7C1FF71692846FFF7C3FF4E
:10156000684600F0C6F80D48854201D1039C08E0AA
:101570000B48854201D1029C03E00A48854200D114
:10158000029C002C07D03268002A04D00027214694
:101590002846FFF7AEFF384605B0F0BD00380140E1
:1015A0000044004000480040F3E9FFFF15490A6885
:1015B00010430860704713490A6822EA0000086077
:1015C000704711490A681043086070470E490A685D
:1015D00022EA0000086070470C490A68104308605E
:1015E00070470A490A6822EA000008607047084903
:1015F0000A6810430860704705490A6822EA00003B
:1016000008607047000401400404014008040140E0
:101610000C04014038B504460025206821790029D2
:101620003CD000283FD06179002903D002290DD099
:1016300006D311E0FFF7CAFF2068FFF7B7FF0CE001
:10164000FFF7B9FF2068FFF7BCFF06E0FFF7AEFF2A
:101650002068FFF7B6FF00E00125A079002822D01E
:10166000012804D018D303280FD007D314E0206832
:10167000FFF7C2FF2068FFF7AFFF14E02068FFF715
:10168000B0FF2068FFF7B3FF0DE02068FFF7A4FF6D
:101690002068FFF7ACFF06E0012504E0FFF78BFFB1
:1016A0002068FFF793FF284632BD00003A480068E3
:1016B00000F00C0070473848006800F0F0007047F8
:1016C0003548006800F4E06070473348006800F473
:1016D000605070473048006800F4803070472E48F2
:1016E000006800F4701070472B480068C0F3404059
:1016F000704710B5044600F00CF8206000F018F8B0
:10170000606000F020F8A060606800F026F8E060FB
:1017100010BD80B5FFF7CAFF042802D0082802D008
:1017200004E01E4802BDBDE8014020E01C4802BDA7
:1017300010B50446FFF7BFFF1A49C0F30310085C59
:10174000C440204610BD10B50446FFF7B9FF164946
:10175000000A085CC440204610BD10B50446FFF7DF
:10176000B4FF1149C00A085CC440204610BD10B542
:10177000FFF7B0FFB0F5803F06D1FFF7B5FF401C83
:101780000649B1FBF0F400E0084CFFF7A8FF800C1D
:10179000801C4443204610BD04100240001BB700CB
:1017A00000127A0070120008D41C000800093D00E5
:1017B00080A2114411F8011C0818016841F00101D0
:1017C000016070477BA2114411F8011C08180168E0
:1017D000490849000160704776A3194411F8011CBB
:1017E00008184168090C52EA014242607047000043
:1017F00070A2114411F8011C0818406880B27047AB
:101800005C4909680140814201D1012070470020F4
:1018100070475849086070470068400800F00100B0
:1018200070470068800800F0010070470068C00839
:1018300000F0010070470068000900F001007047E7
:1018400081B001680091009940680090009801B053
:10185000704781B00168009100994068009000983D
:1018600001B0704781B00168009100994068009014
:10187000009801B0704781B00168009100994068FC
:101880000090009801B07047FEE7FEE7FEE7FEE734
:10189000FEE77047704770473748016811F1010F44
:1018A00002D00168491C0160704780B50120FFF734
:1018B000A7FF002803D00120BDE80240A9E701BD31
:1018C00080B50220FFF79CFF002803D00220BDE86E
:1018D00002409EE701BD7047704780B54FF48070AD
:1018E000FFF78EFF002804D04FF48070BDE802405F
:1018F0008FE701BD7047704738B5204C2046FFF791
:101900009AFF00281BD02046FFF7B5FF20686068CB
:101910001B4D06212846FFF755FF06212846FFF7F5
:1019200067FFC0F1640080B2FEF7F9FF6422062170
:101930002846FFF751FF06212846FFF739FF2046CA
:10194000FFF76AFF002809D12046FFF76AFF002849
:1019500004D12046FFF76AFF00280AD060682046BD
:10196000FFF76EFF2046FFF774FF2046BDE83240C8
:1019700078E731BD14040140080000200044004015
:101980000000024080B54FF40060FFF739FF0028E7
:1019900003D04FF40060FFF73CFF4FF40040FFF727
:1019A0002FFF002804D04FF40040BDE8024030E78C
:1019B00001BD0000081C3044586C80000000C1C00C
:1019C00081C1400101C3C003800241C201C6C006FB
:1019D000800741C70005C1C581C4400401CCC00CCB
:1019E000800D41CD000FC1CF81CE400E000AC1CA8B
:1019F00081CB400B01C9C009800841C801D8C0187B
:101A0000801941D9001BC1DB81DA401A001EC1DEFA
:101A100081DF401F01DDC01D801C41DC0014C1D4EA
:101A200081D5401501D7C017801641D601D2C0120A
:101A3000801341D30011C1D181D0401001F0C030DA
:101A4000803141F10033C1F381F240320036C1F6FA
:101A500081F7403701F5C035803441F4003CC1FCCA
:101A600081FD403D01FFC03F803E41FE01FAC03A8A
:101A7000803B41FB0039C1F981F840380028C1E8BA
:101A800081E9402901EBC02B802A41EA01EEC02EFA
:101A9000802F41EF002DC1ED81EC402C01E4C024EA
:101AA000802541E50027C1E781E640260022C1E20A
:101AB00081E3402301E1C021802041E001A0C0601A
:101AC000806141A10063C1A381A240620066C1A6FA
:101AD00081A7406701A5C065806441A4006CC1ACCA
:101AE00081AD406D01AFC06F806E41AE01AAC06A8A
:101AF000806B41AB0069C1A981A840680078C1B87A
:101B000081B9407901BBC07B807A41BA01BEC07EF9
:101B1000807F41BF007DC1BD81BC407C01B4C074E9
:101B2000807541B50077C1B781B640760072C1B209
:101B300081B3407301B1C071807041B00050C19059
:101B4000819140510193C053805241920196C056F9
:101B5000805741970055C19581944054019CC05CC9
:101B6000805D419D005FC19F819E405E005AC19A89
:101B7000819B405B0199C059805841980188C048B9
:101B800080494189004BC18B818A404A004EC18EF9
:101B9000818F404F018DC04D804C418C0044C184E9
:101BA000818540450187C047804641860182C04209
:101BB000804341830041C1818180404030B4002591
:101BC00012E050F8042BD30744BF4A44521E091FA9
:101BD000042942F8045BFAD213468C0744BF1580EF
:101BE0009B1CC90748BF1D7050F8041B0029E8D191
:101BF00030BC704710B5074979441831064C7C4415
:101C0000163404E00A68081D114488470146A142C1
:101C1000F8D110BD580000007800000000F00FF867
:101C2000002801D0FFF7E6FFAFF300800020AFF3FC
:101C30000080AFF30080FEF707FF00F002F80120FC
:101C4000704700F001B8000000F000F80746384681
:101C500000F002F8FBE7000080B5AFF30080024A15
:101C600011001820ABBEFBE72600020051FFFFFF6A
:101C700064040000140000200000000093F6FFFF41
:101C8000140000002C0000000000002000000000F4
:101C90004EF6A550CFF6F560014603B4684680F3D2
:101CA0000988AFF30080AFF30080FFF7B7FF0000B3
:101CB00001000100000000000000000000200008FA
:101CC00000127A000148804701480047F1110008DE
:101CD000911C00080000000001020304FFF7FEBF92
:101CE000FFF7FEBFFFF7FEBFFFF7FEBFFFF7FEBF28
:101CF000FFF7FEBFFFF7FEBFFFF7FEBFFFF7FEBF18
:101D0000FFF7FEBFFFF7FEBFFFF7FEBFFFF7FEBF07
:101D1000FFF7FEBFFFF7FEBFFFF7FEBFFFF7FEBFF7
:101D2000FFF7FEBFFFF7FEBFFFF7FEBFFFF7FEBFE7
:101D3000FFF7FEBFFFF7FEBFFFF7FEBFFFF7FEBFD7
:101D4000FFF7FEBFFFF7FEBFFFF7FEBFFFF7FEBFC7
:101D5000FFF7FEBFFFF7FEBFFFF7FEBFFFF7FEBFB7
:041D6000FFF7FEBFCC
:0400000508001C9142
:00000001FF
