:020000040800F2
:1000000008040020A90C0008670B0008690B000811
:100010006B0B00086D0B00086F0B00080000000060
:10002000000000000000000000000000710B00084C
:10003000730B000800000000750B0008770B000828
:10004000C10C0008C50C0008C90C0008CD0C000844
:10005000D10C0008D50C0008790B00088B0B0008A8
:10006000D90C0008DD0C0008E10C0008E50C0008C4
:10007000E90C0008ED0C0008F10C0008F50C000874
:100080009D0B00089F0B0008F90C0008FD0C0008F0
:10009000010D0008050D0008090D0008A10B00085E
:1000A0000D0D0008B70B0008110D0008150D000814
:1000B000B90B0008190D00081D0D0008210D0008DE
:1000C000250D0008290D00082D0D0008310D000830
:1000D000350D0008390D0008BB0B00083D0D000868
:1000E000BD0B0008410D0008450D00080901020084
:1000F00003D4DFF8440681547047DFF8403602F03D
:100100000F021A4402F8041C704730B500F00700D3
:100110000123C0F10704052C2EBF0F2403FA04F4B9
:10012000641E051D072D34BF0020C01E21408140E4
:1001300003FA00F0401E1040084330BD10B50FF226
:100140007C630B4413F8011CDFF8F43508180468CD
:100150001C4004E010B500F017F824F020042243FE
:10016000026010BD10B500F00FF824F04004F6E76F
:1001700010B500F009F824F08004F0E710B500F0A5
:1001800003F824F44074EAE70FF230630B4413F8E9
:10019000011C08180468704710B5FFF7F5FF24F438
:1001A0004064DCE710B5FFF7EFFF24F44054D6E7D6
:1001B000DFF8901501E0DFF8901581B00A6802437E
:1001C0000A60096808400090009801B0704710B5B7
:1001D00000EB116091FAA1F1B1FA81F18900036895
:1001E0000F248C40A3438A401A43026010BD10B50F
:1001F000DFF8583501F0FF0253F82240090C8C4318
:1002000091FAA1F1B1FA81F18840204343F822002C
:1002100010BD2DE9F8438CB00120FFF7CCFF4FF063
:100220008050FFF7C5FFDFF82845DFF82815226862
:10023000DFF82475DFF82455DFF824954FF6FF002A
:1002400002400A432260002220680F21C0F30220EE
:10025000FFF75BFF01464FF0FF30FFF747FFDFF886
:1002600004050268022161F31A62026040F204464A
:1002700000F023FA0020009001901421002202A82F
:1002800000F0A0FA1020FFF796FF2020FFF793FF61
:100290000420FFF790FF0820FFF78DFF4FF4005078
:1002A00078614FF4086169612420C9F814004CF2A8
:1002B0001821C9F810104FF4E06201212A6103915E
:1002C0000021DFF8A404029002220591049202A901
:1002D000384600F095FADFF8940402900421039167
:1002E000284602A900F08CFA00F0C0F9DFF880047B
:1002F000029005910122069200F0A9F900F0B6F9EA
:10030000059101220692029600F0A8F9DFF8640434
:10031000029004210391484602A900F071FA0121DC
:1003200003910021DFF8500402900222059106910A
:1003300000F093F901210391002105910691022219
:10034000DFF838040290049200F081F90121039152
:1003500042F22000002102900222059100F07DF976
:10036000DFF81C140220FFF742FF4FF4702100F069
:1003700083F94FF4700100F07FF9DFF8081400F002
:100380007BF9DFF8041400F077F900F06BF94FF413
:10039000004000F088F9012000908DF8040000F082
:1003A00083F900F05FF9022000F07DF900F05AF9BE
:1003B0004FF4006000F077F900F054F900220321B7
:1003C0004FF480788DF805208DF80610CDF8008068
:1003D000684600F06FFA0422EC493846FFF7F7FE52
:1003E000042240F2011100F036F9042240F2022109
:1003F00000F031F90422E649E64F00F02CF904221E
:10040000E54900F028F900F041F901460620FFF720
:100410006DFE402000F040F901460720FFF766FE20
:10042000802000F039F901461720FFF75FFE4FF4F6
:10043000000000F031F901462820FFF757FED748A9
:10044000C7F804800022016841F001010160002129
:10045000006800F00100009000982068C0F30220BE
:10046000FFF753FE01461020FFF740FE4FF48030A7
:1004700000F012F901461120FFF738FE4FF400306A
:1004800038601C21002205A800F09CF914210022EC
:10049000684600F097F94FF40030FFF789FE04201A
:1004A000FFF789FE092101910322002103910292A5
:1004B0000096694600F0CCF840F608000421009050
:1004C00001912846694600F09BF9B54D00F0DAF835
:1004D000FFF734FE00F0D6F8FFF764FE00F0D2F824
:1004E000FFF738FE00F0CEF8FFF73CFE8022062131
:1004F0002846FFF73DFE00F0C5F8FFF73FFE00F08D
:10050000C1F8FFF749FE102207212846FFF716FE23
:1005100000F0B4F8FFF746FE00F0B0F8FFF71AFE5F
:1005200000F0ACF8FFF71EFE802207212846FFF7F7
:100530001FFE00F0A3F8FFF721FE00F09FF8FFF781
:100540002BFE00F0A3F801462620FFF7CFFD402147
:1005500079604FF4E13000210590069107910891F0
:100560000C220A910B91099205A98E4D284600F0A4
:10057000F9F9286920F4904028611421686920F075
:100580002A0068610022E86840F40050E86068468C
:1005900000F018F90120FFF70BFE00F077F8014694
:1005A0001C20FFF7A3FD4FF080523A6041F61F4038
:1005B0000021ADF8000001911322039102926946D7
:1005C0004FF0804000F026FA4FF08040764D0168F1
:1005D00021F080010160816829408160426822F039
:1005E000700242600022816821F0800181606846CB
:1005F000142100F0E7F84FF40060FFF7DCFD00F095
:1006000045F801461920FFF771FD4FF00070386082
:100610004721ADF80010002240F2E731029101922B
:10062000039204926946614C204600F0F3F9206879
:1006300020F080002060A1680D40A560606820F077
:1006400070006060A06820F08000A060FEE702A952
:10065000284600F0D5B84846B9E5049202A94846B4
:1006600000F0CEB801218DF80410704701210391EC
:1006700002220492002170470120B8E500220721E0
:10068000284670470022062128467047206800222D
:100690000021C0F3022038E53860002220680021E4
:1006A000C0F3022031E50090002203218DF80520DF
:1006B0008DF80610684600F0FDB810B53C490A6890
:1006C000022060F302020A600A6802F00702022AAE
:1006D000FAD138490A6842F480320A600A68920303
:1006E000FCD511224B6862F315434B600A6842F057
:1006F00080720A600A689201FCD504224B6823F0DC
:10070000F0034B604B6862F30A234B604A6822F4A3
:1007100060524A604A6860F301024A60486800F02B
:100720000C000828FAD1244C204600F0A9F92046F4
:10073000BDE8104000F0B0B900E400E018ED00E0C2
:10074000EFBFFFFF1C1002401810024008000140DC
:100750000CED00E00003FA05001001400008014024
:10076000000C0140040001402000200483038004A9
:100770008880080430003004DA18C2040700070437
:10078000030000F0020000F002000F00800080046F
:100790000800080400E100E0010001041410024018
:1007A0000000024000440040F8BFFFFF002C014061
:1007B000002002400010024000A24A04081C3044FD
:1007C000586C80004018491C1CBFB1F1010100F8B1
:1007D000012DF9D170470EE00268436802440830E9
:1007E0005FEAC37C44BF4B445B1E52F804CB43F822
:1007F00004CB091FF9D150F8041B0029ECD1704734
:10080000F0B50B681B0202461B0C93FAA3F0B0FA7A
:1008100080F44BE04FF0011604F1F800864046F0FA
:10082000806606E0C00740D5082CF3D240F20116DE
:10083000A640486808280AD10F69D068350AA8433D
:1008400095FAA5F5B5FA85F5AF400743D76096FA56
:10085000A6F502EB1660B5FA85F5AE004F6805689F
:100860004FF00F0E0EFA06FE25EA0E05B7402F4395
:1008700007604F68012F18BF092F16D18F680568D0
:100880004FF0030E0EFA06FE25EA0E05B7402F4381
:1008900007604FF0040CCF6805680CFA06FC25EAE7
:1008A0000C0507FA06F62E430660641C33FA04F0C2
:1008B000B8D1F0BD30B503790268294C0021002B76
:1008C00043D0002A49D043791BB1022B13D009D35E
:1008D00019E0656825EA0202626023680268134332
:1008E000236011E0256825EA02022260636802683D
:1008F0001343636008E023681A4322606568026856
:100900001543656000E00121827932B3012A04D0E9
:1009100019D3032A0ED009D315E0E3680268934384
:10092000E360A36800680343A36016E0A36802685D
:10093000934302E0A36802681343A360E36800687E
:100940000343E36009E0012107E0236823EA020290
:1009500022606268006882436260084630BD000021
:10096000000401407FB504460E46E068012581047D
:1009700043D4E268264871680240F0680A4331694E
:1009800002430A43E2602269B06822F44052024303
:10099000226168466269716922F440720A436261A9
:1009A00000F082F817498C4208BF039906D0164818
:1009B00084421CBF15498C421FD1029900291CBFDB
:1009C0003068002819D0192251438000B1FBF0F1A2
:1009D0006423B1FBF3F26FF0630000FB0211090125
:1009E0003231B1FBF3F000F0F00101EB021100F045
:1009F0000F00401880B20025A060284604B070BDEA
:100A00000000000000380140004400400048004061
:100A1000F3E9FFFF70B50268154D174B154CA8425E
:100A200018BFB0F1804F03D0A04218BF984209D13F
:100A300022F070064A683243A8421CBFB0F1804FD2
:100A4000A04201D0984203D122F44073CA681A43ED
:100A50000260A8428A68C2620A88826202D1096979
:100A6000064A1160416941F001014161002070BDF9
:100A7000002C01400004004000080040302C0140E0
:100A80004FF47A720649B0FBF2F0401E4860002332
:100A90008B600520086070470249086070470000BD
:100AA00010E000E00000002010B5044600F00CF853
:100AB000206000F017F8606000F01AF8A06060682D
:100AC00000F01EF8E06010BD1C48006800F00C004B
:100AD000042802D0082802D002E01948704715E027
:100AE000184870471549184A0968C1F3031104E012
:100AF0001249164A0968C1F30221515CC840704787
:100B00000E49124A0968C1F3C221F6E70B49086889
:100B100000F48030B0F5803F07D10868084AC0F380
:100B20004040401CB2FBF0F000E009480968C1F306
:100B30008341891C484370470000000004100240B4
:100B4000001BB70000127A00980C0008B80C0008CF
:100B500000093D0023490A680240824201D1012078
:100B6000704700207047FEE7FEE7FEE7FEE7FEE77E
:100B7000704770477047704780B50120FFF7EAFF64
:100B800010B118490120086001BD80B50220FFF7AF
:100B9000E1FF10B113490220086001BD70477047A2
:100BA00080B54FF48070FFF7D5FF18B10D494FF4B1
:100BB0008070086001BD70477047704710B54FF4F2
:100BC0000060FFF7C7FF074C10B14FF400602060D2
:100BD0004FF40040FFF7BEFF10B14FF4004020601B
:100BE00010BD00001404014010B5074979441831C4
:100BF000064C7C44163404E00A68081D11448847FA
:100C00000146A142F8D110BD580000006800000064
:100C100000F00FF8002801D0FFF7E6FFAFF30080E7
:100C20000020AFF30080AFF30080FFF7F2FA00F08E
:100C300002F80120704700F001B8000000F000F851
:100C40000746384600F002F8FBE7000080B5AFF336
:100C50000080024A11001820ABBEFBE7260002000C
:100C600077FBFFFF04000000E00000000000002010
:100C7000000000004EF6A550CFF6F560014603B423
:100C8000684680F30988AFF30080AFF30080FFF778
:100C9000BFFF0000704700000000000000000000DF
:100CA000010203040607080901488047014800477C
:100CB000950C0008750C00080000000001020304F8
:100CC000FFF7FEBFFFF7FEBFFFF7FEBFFFF7FEBF58
:100CD000FFF7FEBFFFF7FEBFFFF7FEBFFFF7FEBF48
:100CE000FFF7FEBFFFF7FEBFFFF7FEBFFFF7FEBF38
:100CF000FFF7FEBFFFF7FEBFFFF7FEBFFFF7FEBF28
:100D0000FFF7FEBFFFF7FEBFFFF7FEBFFFF7FEBF17
:100D1000FFF7FEBFFFF7FEBFFFF7FEBFFFF7FEBF07
:100D2000FFF7FEBFFFF7FEBFFFF7FEBFFFF7FEBFF7
:100D3000FFF7FEBFFFF7FEBFFFF7FEBFFFF7FEBFE7
:0C0D4000FFF7FEBFFFF7FEBF00127A00B5
:0400000508000C756E
:00000001FF
