:020000040800F2
:10000000780800203D1C0008291A00082B1A000857
:100010002D1A00082F1A0008311A000800000000ED
:10002000000000000000000000000000331A00087B
:10003000351A000800000000371A0008391A0008B5
:10004000651C0008691C00086D1C0008711C000874
:10005000751C0008791C00083B1A0008511A00089A
:100060007D1C0008811C0008851C0008891C0008F4
:100070008D1C0008911C0008951C0008991C0008A4
:10008000671A0008691A00089D1C0008A11C0008D6
:10009000A51C0008A91C0008AD1C00086B1A00086C
:1000A000B11C0008851A0008B51C0008B91C00081E
:1000B000871A0008BD1C0008C11C0008C51C0008E8
:1000C000C91C0008CD1C0008D11C0008D51C000864
:1000D000D91C0008DD1C0008891A0008E11C000872
:1000E000111B0008E51C0008E91C0008DFF8C81C0B
:1000F0000A6860F30A2240F2FA5060F31F420A6075
:100100007047DFF8B40C0068C0F3022070470100AC
:1001100008D4012200F01F018A40DFF8A01C40092A
:1001200041F82020704701000CD4012200F01F018B
:100130008A40DFF88C1C400941F82020BFF34F8F24
:10014000BFF36F8F7047010008D4012200F01F0138
:100150008A40DFF8701C400941F8202070470901EF
:10016000020003D4DFF8600C81547047DFF85C0CA8
:1001700002F00F02104400F8041C704710B400F0A5
:100180000700C0F10703052B00D30423041D072C2F
:1001900001D2002000E0C01E012404FA03F35B1E1C
:1001A0001940814004FA00F0401E1040084310BC82
:1001B000704738B50446641EB4F1807F0BD2DFF877
:1001C000105C6C600F214FF0FF30FFF7C8FF00207C
:1001D000A86007202860B4F1807F8041C043C00F31
:1001E00032BD000041A2114411F8011C0818016839
:1001F00041F00101016070473CA2114411F8011C5B
:1002000008180168490849000160704737A319447C
:1002100011F8011C08180368DFF8B81B0B401A43DB
:100220000260704731A3194411F8011C08180168D5
:1002300021F020010A430260704700002BA31944FB
:1002400011F8011C0818016821F040010A430260FE
:100250007047000025A3194411F8011C0818016813
:1002600021F080010A430260704700001FA3194477
:1002700011F8011C0818016821F440710A4302605A
:100280007047000019A3194411F8011C08180168EF
:1002900021F440610A4302607047000013A319442F
:1002A00011F8011C0818016821F440510A4302604A
:1002B000704700000DA3194411F8011C081841688B
:1002C000090C52EA014242607047000007A319443A
:1002D00011F8011C0818C2607047000003A31944FC
:1002E00011F8011C0818826070470000081C304497
:1002F000586C8000DFF8E00A016841F48031016049
:100300007047DFF8D40A0068400C00F00100704725
:10031000DFF8C81A0A68920850EA8200086070473D
:10032000DFF8B80A006800F00C007047DFF8AC1A7C
:100330000A6822F0F002104308607047DFF89C1A48
:100340000A6822F4E062104308607047DFF88C1AF4
:100350000A6822F46052104308607047DFF8780A98
:10036000016841F0807101607047DFF86C0A006835
:10037000400E00F001007047DFF8602A136823F494
:100380007C1300F44030184308431060704781B07C
:10039000DFF8181D0A6802430A60096808400090E7
:1003A000009801B07047DFF8041D0A6822EA0000D7
:1003B0000860704781B0DFF8F81C0A6802430A60E1
:1003C000096808400090009801B07047DFF8E41C0D
:1003D0000A68104308607047DFF8D81C0A6822EAF0
:1003E00000000860704781B0DFF8CC1C0A68024347
:1003F0000A60096808400090009801B07047DFF873
:10040000BC1C0A68D20850EAC20008607047DFF8D6
:10041000AC0C006800F007007047016821F0800113
:10042000016070478368DFF8982C1340194381609E
:100430007047426822F07002114341607047816842
:1004400021F0800181607047C16841F40051C160B2
:100450007047C16821F40051C1607047016921F4FF
:1004600090410161416921F02A01416170470068B2
:10047000800900F0010070470068C00900F0010029
:10048000704781B001680091009940680090009821
:1004900001B0704781B001680091009940680090F8
:1004A000009801B0704781B00168009100994068E0
:1004B0000090009801B0704781B0016800910099E8
:1004C00040680090009801B070476FF040010160F3
:1004D000704700F10C0300F10C0151E8002F42F0CD
:1004E000100243E800210029F5D1704700F1140300
:1004F00000F1140151E8002F42F0400243E80021CE
:100500000029F5D170474160704710B400EB1160CD
:1005100091FAA1F1B1FA81F1890003680F248C40AE
:10052000A3438A401A43026010BC7047C1F30F21F5
:1005300001617047C1F30F2141617047DFF8840BFF
:100540000221026861F31A620260704710B401F080
:10055000FF02DFF8743B53F82240090C8C4391FAF8
:10056000A1F1B1FA81F18840204343F8220010BC88
:10057000704770B572B6DFF8544B206880F3088876
:10058000DFF84C0BFFF765FF4FF40030FFF71EFF5D
:100590004FF40030FFF720FFDFF8385B06212846D4
:1005A000FFF72AFE0120FFF7FEFE0120FFF7EFFE16
:1005B0004FF0FF366E602620FFF7B5FD2620FFF7CF
:1005C000C2FDDFF8FC070660DFF8F8070660606828
:1005D000DFF8FC1700220A604A608A608047FEE765
:1005E0000146000A40EA012080B270470021DFF88E
:1005F000E83A04E030F8112023F81120491CB1F545
:10060000007FF7D30020704710B5044600F068F86B
:10061000DFF8C80A34210160416841F002014160FD
:100620008460416841F0400141600168C907FCD421
:10063000416821F002014160016811F0140F04D0FB
:1006400000F05AF84FF0FF3010BD2021016000F09B
:1006500053F8002010BD38B5044600F041F80025DD
:1006600000E06D1CB5F5007F13D2DFF86C0A30F89E
:10067000151008464FF6FF729042F2D004EB450089
:1006800000F041F80028ECD000F036F84FF0FF30D1
:1006900032BD00F031F8002032BD70B504460D4681
:1006A000A60AB60272B63046FFF7A0FFDFF8280AA6
:1006B000A41B640820F814503046FFF7A5FF00285B
:1006C00003D062B66FF0020070BD3046FFF7C3FF83
:1006D000002862B602D06FF0030070BD002070BD2C
:1006E000DFF8FC09C168090605D5DFF8F8190160D3
:1006F000DFF8F41901607047DFF8F009016841F094
:1007000080010160704738B504460D46FFF7E8FFE9
:10071000DFF8C809416841F00101416025800168A6
:10072000C907FCD44168490849004160016811F0DB
:10073000140F01D13422026001F01401481E8041DF
:10074000C043C00F32BDF8B504460D460026DFF8A1
:1007500080790BE03846FFF78FFE0028FAD030464C
:1007600080B2215C3846FFF7CEFE761C3046294623
:1007700080B28842EED33846FFF779FE0028FAD0DF
:100780003846FFF7A2FE0621DFF84809FFF72AFDE9
:10079000BDE8F14008E1E0B5DFF8541909788DF8BB
:1007A00000102A218DF801100146090A8DF8021067
:1007B0008DF803000421684600F0CEFC01460912C2
:1007C0008DF804108DF8050006216846FFF7BBFF81
:1007D00007BD4DF6FE31DFF8F40800F0BDBC2DE991
:1007E000FC41DFF81049A278E17841EA0221ADF836
:1007F00000102179657945EA0125A0F10806B6B215
:10080000DFF8F4783888BDF80010884238D101202C
:1008100078804FF000080FE004EB08008179C07980
:1008200041EA00217868FFF76EFF7868801C7860E5
:1008300008F102081FFA88F808F10100B042EBDB6A
:10084000B04507DA04EB0800817941F47F4178680C
:10085000FFF759FF3888401C3880BDF80000FFF7CB
:100860009AFFBDF80000A84218D14FF6FF71DFF8DB
:100870008C08FFF748FFFFF73FFF002078800DE06E
:100880004FF6FF70FFF787FF41F21111DFF86C0898
:10089000FFF739FFFFF730FF00207880BDE8F381D4
:1008A0001CB5DFF84C1809788DF800106C46DFF89D
:1008B0004418497841F0800161708DF802000321ED
:1008C000684600F049FC01460912E1708DF8040009
:1008D00005216846FFF737FF13BD38B504002AD05D
:1008E000DFF8105800206866032C03DBA11E2846A1
:1008F00000F032FC032C0ADB2919891E0A78034612
:10090000B2EB132F14D14978C0B2814210D12878AC
:10091000DFF8DC17097888420AD168782A2803D1E1
:100920002046BDE832405AE70120BDE83240B7E733
:10093000BDE8314038E031BD38B5DFF8C0474FF68B
:10094000FF712046FFF7A9FEFFF7CAFEDFF88C070C
:1009500034210160DFF87457294603E02022026049
:1009600001F58061DFF89827914215D2A142F7D0B6
:10097000426842F0020242608160426842F04002F6
:1009800042600268D207FCD4426822F00202426050
:10099000026812F0140FE1D0FFF7AEFEDFF858073F
:1009A00045600121018031BD10B500200246DFF80D
:1009B000443701E05A54401C014689B26429F9DBEE
:1009C000DFF80C472046FFF777FD2046FFF759FD7B
:1009D0002046FFF75FFD2046FFF765FDDFF8F44690
:1009E00006212046FFF708FC642206212046FFF777
:1009F00061FC06212046BDE81040FFF7F3BB7CB543
:100A00000120FFF7F0FC4FF08050FFF7D3FC0320EC
:100A1000FFF76CFBFFF775FB00220F21FFF7AEFB22
:100A200001464FF0FF30FFF79AFBFFF787FD00F01C
:100A300082F800F0F5F900F0D3F900F024F900F0A5
:100A4000E8F800F0ADF8DFF888562846FFF741FDDA
:100A5000DFF88066DFF8AC2606213046FFF73EFC63
:100A6000DFF89046224606213046FFF72FFC284645
:100A7000FFF73CFD00F08EFBDFF88C0600684FF4BA
:100A80007A71B0FBF1F0FFF794FBFFF78DFF4FF6A3
:100A9000FF761CE0DFF86056688800280AD0BDF8B1
:100AA0000200B04206D068881E2803DBFFF744FF2F
:100AB00000206880606EB0F57A7F08D3606EA0F584
:100AC0007A706066DFF830064188491C4180DFF8A3
:100AD0003C566888ADF80600DFF834060088ADF8AB
:100AE00002000020ADF80000BDF80200B04209D0BD
:100AF000FFF76FFEADF80000BDF80000FFF770FDD6
:100B0000ADF800002888ADF80400BDF8060041F2F9
:100B10001111884202D1FFF70FFFCBE7BDF80000AB
:100B2000BDF804108842B5D1BDF80200B042B1D082
:100B3000FFF71FFDBEE710B50220FFF760FCFFF7CF
:100B400066FC0228FBD1FFF7D5FBFFF7DAFB012893
:100B5000FBD14FF480114FF48030FFF70DFCFFF70D
:100B6000FDFBFFF702FC0128FBD10020FFF7DEFBB5
:100B70004FF48060FFF7E2FB0020FFF7E7FB022065
:100B8000FFF7C6FBFFF7CCFB0828FBD1DFF8844555
:100B9000204600F04FFB2046BDE8104000F04DBB62
:100BA00018B585B014210022684600F04DFB4FF4C3
:100BB0000060FFF718FCFFF7A4FA00221146FFF7C8
:100BC000DDFA01461920FFF7CAFA1920FFF79FFA4C
:100BD0004720ADF800000020019040F2E73002907D
:100BE000002003900490DFF830456946204600F06D
:100BF0007EFB2046FFF711FC00212046FFF712FC88
:100C000000212046FFF715FC2046FFF718FC06B030
:100C100010BD00B585B014210022684600F014FB19
:100C20000120FFF7C7FBFFF76CFA00221146FFF720
:100C3000A5FA01461C20FFF792FA1C20FFF767FA7D
:100C400041F61F40ADF800000020019013200290F3
:100C50000020039069464FF0804000F048FB4FF0C1
:100C60008040FFF7DAFB00214FF08040FFF7DAFB0E
:100C700000214FF08040FFF7DCFB4FF08040FFF792
:100C8000DEFB05B000BD10B58CB01C21002205A80C
:100C900000F0DAFA14210022684600F0D5FA4FF489
:100CA0000030FFF787FB0420FFF79DFB40F2044074
:100CB0000090092001900320029000200390DFF8AB
:100CC0005C446946204600F093FB40F60800009023
:100CD000042001906946204600F08AFBDFF8F443C7
:100CE000002206212046FFF791FA00220621204625
:100CF000FFF7D4FA002206212046FFF793FA0022DC
:100D000006212046FFF79AFA802206212046FFF7A7
:100D1000A1FA002206212046FFF7A8FA00220621A8
:100D20002046FFF7AFFA102207212046FFF76EFAA0
:100D3000002207212046FFF7B1FA002207212046B2
:100D4000FFF770FA002207212046FFF777FA80228A
:100D500007212046FFF77EFA002207212046FFF7F1
:100D600085FA002207212046FFF78CFAFFF7C9F920
:100D700000221146FFF702FA01462620FFF7EFF99D
:100D80002620FFF7C4F94FF4E130059000200690CB
:100D9000079008900C20099000200A900B90CC4CF2
:100DA00005A9204600F090FB2046FFF757FB2046A0
:100DB000FFF74AFB0CB010BD0CED00E000E100E0D5
:100DC00080E100E080E200E000E400E018ED00E0F7
:100DD00010E000E0EFBFFFFF0010024004100240EF
:100DE00080B50120FFF7D3FAFFF78BF900221146F7
:100DF000FFF7C4F901461020FFF7B1F91020FFF703
:100E000086F9FFF77EF900221146FFF7B7F9014690
:100E10001120FFF7A4F91120BDE80240FFF777B9D0
:100E20002DE9F84787B00020694608604860142122
:100E3000024602A800F008FA1020FFF7D4FA20209A
:100E4000FFF7D1FA0420FFF7CEFA0820FFF7CBFA1C
:100E5000B34CDFF8D0A251462046FFF76BFBAF4DF5
:100E6000B14E31462846FFF765FBB04F42F22441B0
:100E70003846FFF75FFBDFF8B88241463846FFF798
:100E800055FBDFF8B09249462846FFF74FFBCDF8F7
:100E900008A001200390022004900020059002A9E0
:100EA000204600F0A5FAA44802900420039002A96D
:100EB000284600F09DFA029601200390022004903B
:100EC000002005900120069002A9284600F090FA23
:100ED00040F2044002900120039002200490002080
:100EE00005900120069002A9384600F081FA934847
:100EF00002900420039002A9384600F079FACDF858
:100F000008800120039002200490002005900690A4
:100F100002A9384600F06CFACDF808900120039041
:100F20000220049000200590069002A9284600F0B7
:100F30005FFA42F220000290012003900220049008
:100F40000020059002A9384600F052FA7C490220A0
:100F5000FFF7FCFA4FF470210120FFF7F7FA4FF486
:100F600070010120FFF7F2FA76490120FFF7EEFA4F
:100F700075490120FFF7EAFA4FF400400090012084
:100F80008DF8040000208DF8050003208DF8060080
:100F9000684600F00FFB012000908DF8040000204F
:100FA0008DF8050003208DF80600684600F002FB6E
:100FB0000220009001208DF8040000208DF805002B
:100FC00003208DF80600684600F0F4FA4FF4006044
:100FD000009001208DF8040000208DF8050003200A
:100FE0008DF80600684600F0E5FA4FF48070009036
:100FF00001208DF8040000208DF8050003208DF8F5
:101000000600684600F0D6FA042250492046FFF751
:101010007CFA042240F201113846FFF776FA0422E6
:1010200040F202213846FFF770FA04224849384658
:10103000FFF76BFA042247493846FFF766FAFFF7D5
:1010400060F800221146FFF799F801460620FFF7E5
:1010500086F80620FFF75BF8FFF753F800221146E9
:10106000FFF78CF801460720FFF779F80720FFF714
:101070004EF8FFF746F800221146FFF77FF80146C9
:101080001720FFF76CF81720FFF741F8FFF739F842
:1010900000221146FFF772F801462820FFF75FF89B
:1010A0002820FFF734F808B0BDE8F087141002409C
:1010B0001C10024010100240181002400020024094
:1010C000F8BFFFFF040001400800014000200008B5
:1010D0000044004000000240100000200C200240AC
:1010E0000420024023016745AB89EFCD1020024068
:1010F0000C000020100400200000002000FC00086C
:10110000FFFB00080444004008000020FEFB00082C
:101110000220000800A24A04002C014000080140FF
:10112000001001402000200488800804000C0140C9
:10113000DA18C20407000704830380043000300477
:10114000030000F0020000F002000F0080008004A5
:10115000080008040100010470B44FF6FF72002378
:101160000A4D08E002F0FF06045D664035F81640BF
:1011700084EA22225B1C1C46A4B28C42F2DB10469D
:10118000000A40EA022080B270BC70475017000885
:10119000704700001849086800F00C00174A04283E
:1011A00002D0082803D01BE0154810601AE00B6835
:1011B00003F47013086800F480309B0C9B1C00281B
:1011C00003D11048434313600CE00868800303D543
:1011D0000D484343136005E009484343136001E0B1
:1011E0000A4810600AA00968C1F30311405C116845
:1011F000C140116070470000041002400800002048
:10120000001BB70000093D00808D5B0000127A00D2
:1012100000000000000000000102030406070809A6
:10122000074AB0FBF1F0401E50600020906005209E
:10123000106070474FF47A71F2E702490860704716
:1012400010E000E00800002062F30F2262F31F426A
:10125000401810F0030308D0C91A1FD3DB0748BF9A
:1012600000F8012D28BF20F8022D130030B41446D9
:101270001546103928BF20E93C00FAD8490728BF95
:1012800020E90C0048BF40F8042D890028BF20F851
:10129000022D48BF00F8012D30BC7047C91818BF97
:1012A00000F8012DCB0728BF00F8012D70470EE094
:1012B00002684368024408305FEAC37C44BF4B4481
:1012C0005B1E52F804CB43F804CB091FF9D150F848
:1012D000041B0029ECD1704781627047C1627047DE
:1012E00001637047416941F001014161704770B588
:1012F00004460D462068DFF87060B4420AD0B4F1AD
:10130000804F07D0DFF864108C4203D0DFF8601004
:101310008C4204D120F07000014668680843B44252
:1013200008D0B4F1804F05D010498C4202D010494A
:101330008C4204D120F440700146E86808432060E4
:10134000A9682046FFF7CAFF29882046FFF7C4FF97
:10135000B44203D129693046FFF7C2FF2046FFF7A8
:10136000C1FF002070BD0000002C014000040040BF
:101370000008004010B400EB116091FAA1F1B1FA3D
:1013800081F1890003680F248C40A3438A401A43EB
:10139000026010BC704710B400EB116091FAA1F12B
:1013A000B1FA81F18900036803248C40A3438A4089
:1013B0001A43026010BC704710B400EB116091FA40
:1013C000A1F1B1FA81F18900036804248C40A343A0
:1013D0008A401A43026010BC7047C368090A8B43F5
:1013E00091FAA1F1B1FA81F18A401A43C2607047C3
:1013F0002DE9F04104460D462E683602360C96FA69
:10140000A6F0B0FA80F72DE04FF0011807F1F800D0
:1014100008FA00F848F0806807E0C00721D5082FD7
:10142000F2D240F2011808FA07F86868082804D1D7
:101430002A6941462046FFF7D0FF6A6841462046A8
:10144000FFF798FF6868012801D0092809D1AA6828
:1014500041462046FFF79FFFEA6841462046FFF7D6
:10146000ABFF7F1C3046F840D7D10020BDE8F081AB
:10147000C068400B00F001007047026922F440523E
:10148000114301617047426922F440721143416186
:101490007047192359439200B1FBF2F26421B2FB69
:1014A000F1F36FF0630101FB032212013232642178
:1014B000B2FBF1F101F0F00202EB031201F00F01B7
:1014C000891889B281607047F8B584B005460E4628
:1014D00001270024FFF7CCFF00282CD1E9681A4827
:1014E000014070680143F068014330690143E960DD
:1014F000B1682846FFF7C1FF71692846FFF7C3FFAF
:10150000684600F0C6F80D48854201D1039C08E00A
:101510000B48854201D1029C03E00A48854200D174
:10152000029C002C07D03268002A04D000272146F4
:101530002846FFF7AEFF384605B0F0BD0038014041
:101540000044004000480040F3E9FFFF15490A68E5
:1015500010430860704713490A6822EA00000860D7
:10156000704711490A681043086070470E490A68BD
:1015700022EA0000086070470C490A6810430860BE
:1015800070470A490A6822EA000008607047084963
:101590000A6810430860704705490A6822EA00009B
:1015A0000860704700040140040401400804014041
:1015B0000C04014038B50446002520682179002933
:1015C0003CD000283FD06179002903D002290DD0FA
:1015D00006D311E0FFF7CAFF2068FFF7B7FF0CE062
:1015E000FFF7B9FF2068FFF7BCFF06E0FFF7AEFF8B
:1015F0002068FFF7B6FF00E00125A079002822D07F
:10160000012804D018D303280FD007D314E0206892
:10161000FFF7C2FF2068FFF7AFFF14E02068FFF775
:10162000B0FF2068FFF7B3FF0DE02068FFF7A4FFCD
:101630002068FFF7ACFF06E0012504E0FFF78BFF11
:101640002068FFF793FF284632BD00003A48006843
:1016500000F00C0070473848006800F0F000704758
:101660003548006800F4E06070473348006800F4D3
:10167000605070473048006800F4803070472E4852
:10168000006800F4701070472B480068C0F34040B9
:10169000704710B5044600F00CF8206000F018F810
:1016A000606000F020F8A060606800F026F8E0605C
:1016B00010BD80B5FFF7CAFF042802D0082802D069
:1016C00004E01E4802BDBDE8014020E01C4802BD08
:1016D00010B50446FFF7BFFF1A49C0F30310085CBA
:1016E000C440204610BD10B50446FFF7B9FF1649A7
:1016F000000A085CC440204610BD10B50446FFF740
:10170000B4FF1149C00A085CC440204610BD10B5A2
:10171000FFF7B0FFB0F5803F06D1FFF7B5FF401CE3
:101720000649B1FBF0F400E0084CFFF7A8FF800C7D
:10173000801C4443204610BD04100240001BB7002B
:1017400000127A00101200085C1C000800093D001D
:101750000000C1C081C1400101C3C003800241C279
:1017600001C6C006800741C70005C1C581C4400449
:1017700001CCC00C800D41CD000FC1CF81CE400EF9
:10178000000AC1CA81CB400B01C9C009800841C809
:1017900001D8C018801941D9001BC1DB81DA401A79
:1017A000001EC1DE81DF401F01DDC01D801C41DC49
:1017B0000014C1D481D5401501D7C017801641D679
:1017C00001D2C012801341D30011C1D181D0401089
:1017D00001F0C030803141F10033C1F381F2403279
:1017E0000036C1F681F7403701F5C035803441F449
:1017F000003CC1FC81FD403D01FFC03F803E41FEF9
:1018000001FAC03A803B41FB0039C1F981F8403808
:101810000028C1E881E9402901EBC02B802A41EA78
:1018200001EEC02E802F41EF002DC1ED81EC402C48
:1018300001E4C024802541E50027C1E781E6402678
:101840000022C1E281E3402301E1C021802041E088
:1018500001A0C060806141A10063C1A381A2406278
:101860000066C1A681A7406701A5C065806441A448
:10187000006CC1AC81AD406D01AFC06F806E41AEF8
:1018800001AAC06A806B41AB0069C1A981A8406808
:101890000078C1B881B9407901BBC07B807A41BA78
:1018A00001BEC07E807F41BF007DC1BD81BC407C48
:1018B00001B4C074807541B50077C1B781B6407678
:1018C0000072C1B281B3407301B1C071807041B088
:1018D0000050C190819140510193C0538052419278
:1018E0000196C056805741970055C1958194405448
:1018F000019CC05C805D419D005FC19F819E405EF8
:10190000005AC19A819B405B0199C0598058419807
:101910000188C04880494189004BC18B818A404A77
:10192000004EC18E818F404F018DC04D804C418C47
:101930000044C184818540450187C0478046418677
:101940000182C042804341830041C1818180404087
:101950007BA2114411F8011C0818016841F0010133
:101960000160704776A2114411F8011C0818016843
:10197000490849000160704771A3194411F8011C1E
:1019800008184168090C52EA0142426070470000A1
:101990006BA2114411F8011C0818406880B270470E
:1019A000584909680140814201D101207047002057
:1019B00070475449086070470068400800F0010013
:1019C00070470068800800F0010070470068C00898
:1019D00000F0010070470068000900F00100704746
:1019E00081B001680091009940680090009801B0B2
:1019F000704781B00168009100994068009000989C
:101A000001B0704781B00168009100994068009072
:101A1000009801B0704781B001680091009940685A
:101A20000090009801B07047FEE7FEE7FEE7FEE792
:101A3000FEE7704770477047704780B50120FFF799
:101A4000AFFF002803D00120BDE80240B1E701BD8F
:101A500080B50220FFF7A4FF002803D00220BDE8D4
:101A60000240A6E701BD7047704780B54FF4807013
:101A7000FFF796FF002804D04FF48070BDE80240C5
:101A800097E701BD7047704738B51F4C2046FFF7F8
:101A9000A2FF00281BD02046FFF7BDFF206860682A
:101AA0001A4D06212846FFF75DFF06212846FFF75D
:101AB0006FFFC0F1640080B2FEF70FFF64220621C1
:101AC0002846FFF759FF06212846FFF741FF204629
:101AD000FFF772FF002809D12046FFF772FF0028A8
:101AE00004D12046FFF772FF00280AD06068204624
:101AF000FFF776FF2046FFF77CFF2046BDE8324027
:101B000080E731BD14040140004400400000024061
:101B100080B54FF40060FFF743FF002803D04FF477
:101B20000060FFF746FF4FF40040FFF739FF002841
:101B300004D04FF40040BDE802403AE701BD000088
:101B4000081C3044586C800030B4002512E050F876
:101B5000042BD30744BF4A44521E091F042942F8EC
:101B6000045BFAD213468C0744BF15809B1CC9073F
:101B700048BF1D7050F8041B0029E8D130BC7047E5
:101B800010B5074979441831064C7C44163404E0FA
:101B90000A68081D114488470146A142F8D110BDCA
:101BA000580000007800000000F00FF8002801D075
:101BB000FFF7E6FFAFF300800020AFF30080AFF344
:101BC0000080FEF71CFF00F002F80120704700F0D3
:101BD00001B8000000F000F80746384600F002F8AF
:101BE000FBE7000080B5AFF30080024A1100182027
:101BF000ABBEFBE72600020051FFFFFF68040000B8
:101C00001000002000000000A7F6FFFF10000000F9
:101C10003C00000000000020000000004EF6A5502F
:101C2000CFF6F560014603B4684680F30988AFF348
:101C30000080AFF30080FFF7B7FF00000148804746
:101C400001480047911100081D1C00080100000018
:101C50000020000800127A000100000000000000CF
:101C600001020304FFF7FEBFFFF7FEBFFFF7FEBF51
:101C7000FFF7FEBFFFF7FEBFFFF7FEBFFFF7FEBF98
:101C8000FFF7FEBFFFF7FEBFFFF7FEBFFFF7FEBF88
:101C9000FFF7FEBFFFF7FEBFFFF7FEBFFFF7FEBF78
:101CA000FFF7FEBFFFF7FEBFFFF7FEBFFFF7FEBF68
:101CB000FFF7FEBFFFF7FEBFFFF7FEBFFFF7FEBF58
:101CC000FFF7FEBFFFF7FEBFFFF7FEBFFFF7FEBF48
:101CD000FFF7FEBFFFF7FEBFFFF7FEBFFFF7FEBF38
:0C1CE000FFF7FEBFFFF7FEBFFFF7FEBFDF
:0400000508001C1DB6
:00000001FF
